:020000040800F2
:100000005006002001010008BB1F0008B91D0008B0
:10001000B91F00087D080008E52500080000000061
:10002000000000000000000000000000DF1F0008CA
:100030007F08000800000000DD1F0008E11F000825
:100040001B0100081B0100081B0100081B01000820
:100050001B0100081B0100081B0100081B01000810
:100060001B0100081B0100081B0100081B01000800
:100070001B0100081B0100081B0100081B010008F0
:100080001B0100081B0100081B0100081B010008E0
:100090001B0100081B0100081B0100081B010008D0
:1000A0001B0100081B0100081B0100081B010008C0
:1000B0001B010008A12000081B0100081B0100080B
:1000C0001B0100081B0100081B0100081B010008A0
:1000D0001B0100081B0100081B010008D9250008AE
:1000E0001B0100081B0100081B010008DFF80CD0F1
:1000F00000F0B2FB00480047ED2E0008500600203B
:100100000648804706480047FEE7FEE7FEE7FEE7B1
:10011000FEE7FEE7FEE7FEE7FEE7FEE75920000800
:10012000ED000008202A04DB203A21FA02F0002129
:10013000704721FA02F3D040C2F1200291400843F7
:1001400019467047F0B480EA0102D40F4200B2EBC6
:10015000410F02D20246084611464A0042D0C30D62
:10016000DDB2C1F3C752AD1A202D35DAC1F3160145
:1001700041F4000204B15242C5F1200602FA06F130
:100180002A411044B3EBD05F23D0C4B1012DA0EBC2
:10019000C35009DCF0BC4FF0004202EAC352DBB2AC
:1001A00000F5000000F0BCB9400000F1807000EBE9
:1001B000C350A0F1807040EAD170490009E04908BD
:1001C00041EAC071A0EBC35000F50000400800EB0D
:1001D000C350F0BC00F09BB96142012202EB410127
:1001E000001BF6E7F0BC704781F00041AAE780F001
:1001F0000040A7E780EA010210B502F0004340008A
:1002000022D04A001FD0010E01EB1261C0F356004C
:10021000C2F3560240F4000042F40002A0FB0220A8
:1002200000047F39140400D0401C50EA124001D46D
:100230004000491EC2B20C0604EBD010401C40081E
:10024000802A02D003E0002010BD20F00100002928
:1002500000DA0020184310BD2DE9FE4F804681EAE8
:100260000300C00F0C46009021F0004123F0004530
:10027000B8EB0200A94105D24046214690461C46F3
:100280000B46024623F00040104347D0270DC7F32A
:100290000A00C3F30A510290401A019040286BDA19
:1002A000C3F3130040F4801B0098924620B1002352
:1002B000D2EB030A63EB0B0B01985946C0F14002E5
:1002C000504600F003F906460D4650465946019A3D
:1002D00000F00BF910EB08006141002487EA11528D
:1002E00084EAE7731A4340D0009A62B3019A012A64
:1002F0004FEA075215DC001B61EB02014FF0004290
:1003000002EA0752CDE90042001C41F58011324655
:100310002B4600F042F903B0BDE8F08F404621467D
:10032000F9E7001B61EB0201001C41F58013001886
:100330005B412018A2F5001747EB030140EAD57096
:10034000B6196D4111E06D084FEA360645EAC075F1
:100350004FEA0752001B61EB0201001C41F58011BE
:1003600049084FEA30000019514132462B4603B08C
:10037000BDE8F04F00F002B90098012240000023D0
:10038000D0EB020263EBE073009821464FEAE07481
:10039000B8EB000061EB0401E9E783F000435BE7A1
:1003A00081F0004158E7C10F80EAE0700844CA07B5
:1003B0009623002100F0B4B820F00040C10DC0F336
:1003C000160040F400007F2901DA002070479629CA
:1003D00003DCC1F19601C8407047963988407047E8
:1003E00000F0004230F000400AD0C10D01F560710C
:1003F000C0F3160042EA0151C2084007114370479A
:1004000000200146704701F0004330B421F0004164
:1004100050EA010206D00A0DA2F56072C1F3130181
:10042000002A02DC30BC00207047440F44EAC104BB
:10043000C100E01830BC00EBC25000F068B830B525
:100440000B46014600202022012409E021FA02F592
:100450009D4205D303FA02F5491B04FA02F528442C
:10046000151EA2F10102F1DC30BD2DE9F05F054659
:10047000002092469B4688460646814640241BE063
:100480002846414647462246FFF74CFE53465A4609
:10049000C01A914110D311461846224600F016F8B2
:1004A0002D1A67EB01084F4622460120002100F07B
:1004B0000DF817EB00094E41201EA4F10104DFDC0A
:1004C000484631462A464346BDE8F09F202A04DBD1
:1004D000203A00FA02F1002070479140C2F1200357
:1004E00020FA03F3194390407047202A06DBCB170C
:1004F000203A41FA02F043EAE07306E041FA02F3DF
:10050000D040C2F1200291400843194670470029AB
:10051000A8BF7047401C490008BF20F00100704789
:1005200010B4B0FA80FC00FA0CF050EA010404BFE9
:1005300010BC704749B1CCF1200421FA04F411FA3F
:100540000CF118BF012121430843A3EB0C01CB1D83
:100550004FEA00614FEA102042BF002010BC7047F4
:1005600000EBC35010440029A4BF10BC7047401CCE
:10057000490008BF20F0010010BC704710B5141EE0
:1005800073F1000408DA401C41F1000192185B414C
:100590001A4301D120F0010010BD2DE9F04D924623
:1005A0009B4611B1B1FA81F202E0B0FA80F220323A
:1005B0009046FFF78BFF04460F4640EA0A0041EAE7
:1005C0000B0153465A46084313D0114653EA010023
:1005D00019D0C8F140025046FFF7A4FD05460E466B
:1005E000504659464246FFF771FF084305D00120A7
:1005F00004E020463946BDE8F08D0020054346EA78
:10060000E0762C4337430A986305E40AA0EB080020
:100610000022FD0A44EA47540A3002D50020014670
:10062000E9E7010510196941DDE90845001969414B
:10063000BDE8F04DA2E72DE9FE4F81EA030404F086
:10064000004421F0004100944FF0000B23F00043E0
:1006500050EA01045ED052EA03045BD0C3F30A54AB
:10066000C1F30A552C44A4F2F3340194A0FB0254C4
:10067000C1F3130141F48011C3F3130343F4801356
:1006800001FB024400FB034E840A970A44EA8154AA
:1006900047EA8357A4FB076802958D0A05FB078587
:1006A0004FEA932C04FB0C542705029D4FEA065891
:1006B00047EA1637B5EB08056EEB070C870E920E6E
:1006C00047EA811742EA8312A7FB0201B6EB0B014E
:1006D00064EB00042B0D43EA0C335E1844EB1C5012
:1006E000DA465146E7FB0201C5F313044FEA0B3328
:1006F00043EA14534FEA0432019C43EA0603A4F18F
:100700000C040294009CCDE900B4FFF746FF03B04F
:10071000BDE8F08F00200146F9E72DE9F04D81EAB0
:10072000030404F0004B21F0004514464FF0000A8A
:1007300023F0004150EA050220D054EA01021DD006
:10074000C5F30A570246C5F31303C1F31300C1F3FF
:100750000A5640F4801543F48013A7EB0608101BDB
:10076000D64608F2FD3873EB050002D308F1010804
:1007700001E092185B41B8F1000F03DA0020014656
:10078000BDE8F08D00204FF48011064684460EE04F
:10079000171B73EB050705D3121B63EB0503064319
:1007A0004CEA010C49084FEA300092185B4150EACC
:1007B0000107EDD152EA030012D082EA040083EA75
:1007C0000501084305D0101BAB4106D201220023CE
:1007D00006E000224FF0004302E06FF001025310E8
:1007E0001AEB06004CEB085110EB0A0041EB0B0131
:1007F000BDE8F04DFFF7C2BEC1F30A52C1F31301C9
:1008000040F2FF3341F480119A4202DA002001469F
:10081000704740F233439A42A2F2334202DC524222
:10082000FFF780BCFFF752BE30B5041E71F1000423
:1008300004DB4FF00044404264EB0101141E73F1ED
:10084000000405DB1C464FF00043524263EB0403F7
:10085000994208BF904230BD064C074D06E0E06863
:1008600040F0010394E8070098471034AC42F6D3F7
:10087000FFF740FC3831000858310008FEE77047A8
:1008800010B590F821100024022903D004218163BF
:1008900001243DE001680A6822F00E020A60016846
:1008A0000A6822F001020A601A4A0168914201D1E5
:1008B000012121E0174A1432914201D110211BE09D
:1008C000144A2832914201D1891515E0114A3C326F
:1008D000914201D189140FE00E4A5032914202D167
:1008E0004FF4803108E00B4A6432914202D14FF458
:1008F000801101E04FF08071064A083A51600121F1
:1009000080F82110002180F82010416B01B1884748
:10091000204610BD080002402DE9F84FDFF890A1F5
:1009200000220AF1040B144601274FF00F090BF1C6
:10093000040E00BF0B6807FA04F52B40AB4274D1DC
:10094000DFF870C14E68A6EB0C0866452BD00DDCB5
:10095000032E34D005DC36B3012E19D0022E2FD150
:100960001BE0112E16D0122E2AD119E0B8F5881FDF
:1009700019D006DCB8F5803F15D0B8F5801F1FD11F
:1009800011E0B8F5001F0ED0B8F5041F18D10AE029
:10099000CA6815E0CA68121D12E0CA6808320FE082
:1009A000CA680C320CE08A682AB1012A4FF00802AA
:1009B00003D0456104E0042202E0056100E000226A
:1009C000FF2B01D8064601E000F104064FEA84053A
:1009D00001D9A5F12005D6F800C009FA05F82CEADE
:1009E000080C02FA05F54CEA050CC6F800C04D6883
:1009F000ED0057D5304DAE6946F00106AE61AD69E8
:100A000024F0030605F0010500952C4D06EB050CBE
:100A1000DCF80850A6074FEA167809FA08F6B5433D
:100A2000274EB04202D1002610E03BE0254EB042F6
:100A300001D101260AE0244EB04201D1022605E090
:100A4000224EB04201D1032600E0042606FA08F641
:100A50002E43CCF808604D68DAF80060ED03554687
:100A600001D51E4300E09E432E604D68DBF8006018
:100A7000AD035D4601D51E4300E09E432E604D68E8
:100A8000DEF80060ED02754601D51E4300E09E438E
:100A90002E604D68AD020E4D2E6801D51E4300E05C
:100AA0009E432E60641C102CFFF444AFBDE8F88F09
:100AB000000401400000111000100240000001403D
:100AC00000080140000C01400010014000140140EA
:100AD0000C0401400AB1016170470904FBE7000002
:100AE00001488068704700000000002070B50400D5
:100AF0001BD094F83D00002520B984F83C502046D6
:100B000000F094F8242084F83D002068016821F06A
:100B10000101016000F014FA404A6168914201D875
:100B20003F4900E03F49884201D2012070BD3E4963
:100B30002368B0FBF1F159606368934206D94FF422
:100B4000967359434FF47A73B1FBF3F12368491C50
:100B500019626168914210D84900401EB0FBF1F261
:100B6000521CC2F30B02042A01D2042022E0B0FB83
:100B7000F1F0401CC0F30B001CE0A368CBB301EB09
:100B8000C10202EB0116421EB2FBF6F2521C42F405
:100B90008042120536D06BB301EBC10202EB0111AA
:100BA000401EB0FBF1F0401CC0F30B0040F480404D
:100BB00040F400402168C861D4E907010843216876
:100BC0000860D4E90310084321688860D4E905016E
:100BD00008432168C8602068016841F00101016094
:100BE0002564202084F83D00256384F83E500020D1
:100BF00070BD00E008E001EB4106421EB2FBF6F2D8
:100C0000521CC6E70120D5E701EB4101401EB0FBB5
:100C1000F1F0401CC0F30B00CAE70000A086010001
:100C200080841E0000093D0040420F0000B50068AE
:100C30000C4985B0884212D1C0200090122001904A
:100C40000320039069460848FFF766FE0748C1691C
:100C500041F40011C161C06900F40010049005B0B6
:100C600000BD000000540040000C01400010024094
:100C700002488168027811448160704700000020BA
:100C8000074810B5016841F010010160032000F031
:100C900095F8002000F006F800F024F8002010BDC0
:100CA0000020024070B50D4D04464FF47A7128784B
:100CB000B1FBF0F00A490968B1FBF0F000F025FB48
:100CC00048B9102C07D200222146501E00F056F8D9
:100CD00000206C6070BD012070BD0000000000208D
:100CE0000C0000201D4808B5816941F001018161B7
:100CF000806900F001000090032000F05FF80022FE
:100D000011466FF00B0000F039F8002211466FF029
:100D10000A0000F033F8002211466FF0090000F0DD
:100D20002DF800221146501F00F028F8002211462D
:100D3000101F00F023F800221146901E00F01EF84C
:100D400000221146501E00F019F80548416821F0B4
:100D5000E06141F08061416008BD00000010024088
:100D60000000014000F01F02012191404009800075
:100D700000F1E020C0F8001170470000F0B40E4B05
:100D80001B680C46C3F30223C3F10705042D00D9E9
:100D90000425191D072901D2002300E0DB1E0126CE
:100DA00006FA05F1491E214099409E40761E1640E4
:100DB0003143F0BC01F002B90CED00E0064900F04F
:100DC000070208684FF6FF03184040EA0220034A72
:100DD00010430860704700000CED00E00000FA05C9
:100DE0002DE9F047DFF83C8105460E46D8F80000B3
:100DF00000F00700B0420CD2D8F8001021F0070133
:100E00003143C8F80010D8F8000000F00700B042E5
:100E100063D12878444C800705D56068A96820F024
:100E2000F000084360602878C00745D06868012852
:100E300016D02168022816D0890700294DDA61688A
:100E400021F0030101436160FFF74AFE696807462C
:100E500041F2883001290FD00229814619D027E0BC
:100E600021688903E9E78901E7E700BFFFF738FE5A
:100E7000C11B494501D918E081466068C0F3810073
:100E80000128F3D118E000BFFFF72AFEC11B494536
:100E90000BD86068C0F381000228F5D10CE000BFD8
:100EA000FFF71EFEC11B494502D90320BDE8F087AC
:100EB000606810F00C0FF3D1D8F80010404601F034
:100EC0000701B1420BD9016821F0070131430160EC
:100ED000006800F00700B04201D00120E6E7287862
:100EE000400705D56068E96820F4E0600843606069
:100EF0002878000706D56068296920F4605040EA28
:100F0000C100606000F03CF86168084AC1F3031159
:100F1000515CC840064908600020FFF7C3FE00206E
:100F2000C4E7000000200240001002402031000809
:100F30000C00002001480068704700000C000020F1
:100F40000448054900684968044AC1F30221515C1C
:100F5000C84070470C0000200010024030310008EB
:100F60000448054900684968044AC1F3C221515C3C
:100F7000C84070470C0000200010024030310008CB
:100F800012A185B00FC98DE80F0014A0144A0068A3
:100F900004905168134801F00C03042B10D0082B67
:100FA0000ED1C1F38343C9031DF803000AD551686C
:100FB00004AAC1F34041515C0A4A5043B0FBF1F02E
:100FC00005B0704708494843FAE7000002030405EA
:100FD000060708090A0B0C0D0E0F10100102000085
:100FE0000010024000127A0000093D002DE9F84F80
:100FF00004460078B94DC00748D06868C0F3810046
:10100000012807D06868C0F38100022809D1686808
:10101000C00306D52868800338D5606800286FD0E3
:1010200034E06068B0F5803F0BD010B1B0F5A02F70
:1010300011D0286820F480302860286820F48020AF
:1010400002E0286840F480302860606888B1FFF7CB
:1010500047FD064609E0286840F480202860F0E754
:10106000FFF73EFD801B642875D828688003F7D5FC
:101070000CE0FFF735FD064605E000BFFFF730FD49
:10108000801B6428F0D828688003F7D42078944E19
:1010900080074FF001094FF000083BD5686810F059
:1010A0000C0F07D06868C0F38100022809D1686876
:1010B000C00306D42868800714D5206901281FD1F1
:1010C00010E02069B0B1C6F80090FFF709FD0746AF
:1010D00005E000BFFFF704FDC01B0228C4D8286844
:1010E0008007F7D52868616920F0F80040EAC10060
:1010F00028600FE0C6F80080FFF7F2FC074606E024
:10110000E9E000BFFFF7ECFCC01B022823D82868E9
:101110008007F7D4207800072CD57248A169D9B18F
:10112000C0F80090FFF7DCFC074604E0FFF7D8FCAE
:10113000C01B02280FD8686A8007F7D56A484FF4A9
:10114000FA510068B0FBF1F0009000BF0098411E1A
:101150000091FAD20EE080E0C0F80080FFF7C0FCFA
:10116000074604E0FFF7BCFCC01B022875D8686A7C
:101170008007F7D42078400760D5E8690027C000D1
:1011800008D4E86940F08050E861E869012700F080
:101190008050009055480168C90513D40168834602
:1011A00041F480710160FFF79BFC824606E000BFBE
:1011B000FFF796FCA0EB0A0064284ED8DBF800008D
:1011C000C005F5D5E06801280AD008B1052813D07C
:1011D000286A20F001002862286A20F0040002E05A
:1011E000286A40F001002862E06841F2883B98B12B
:1011F000FFF776FC82460BE0286A40F00400286284
:10120000EEE700BFFFF76CFCA0EB0A0159455AD886
:10121000286A8007F6D50CE0FFF762FC824605E0FD
:10122000FFF75EFCA0EB0A0159454CD8286A8007FD
:10123000F6D41FB1E86920F08050E861E06988B316
:101240006968C1F38101022945D00228C6F860808F
:1012500004D0FFF745FC044638E034E0FFF740FCDB
:10126000074604E0FFF73CFCC01B02282BD8286887
:101270008001F7D4206AB0F5803F05D16868A16885
:1012800020F4003008436860D4E908010843696825
:1012900021F4741108436860C6F86090FFF720FCE1
:1012A000044606E015E000BFFFF71AFC001B022809
:1012B00009D828688001F7D50BE000BFFFF710FCC4
:1012C000001B022802D90320BDE8F88F286880019E
:1012D000F4D40020F8E70120F6E7000000100240F7
:1012E00000004242800442420C0000200070004096
:1012F0004FF0E0210428086903D020F004000861C1
:10130000704740F00400FAE7704710B5401EB0F196
:10131000807F01D3012010BD4FF0E02460610F21D8
:10132000601700F04BFE0020A06107202061002024
:1013300010BD10B5FFF7E8FF10BD7047704710B53E
:1013400090F83C20012A25D0012280F83C20CA6870
:101350008C6822F4407222434C6822F4806222435B
:101360000C6822F4006222430C6922F4805222436A
:101370004C6922F4005222438C6922F480422243B9
:1013800022F40041026800232143516480F83C307C
:10139000002010BD022010BD30B590F83C20012A7D
:1013A00020D0012280F83C20022380F83D300368E1
:1013B0005C6824F070045C6003685C680D682C4312
:1013C0005C6003689C6824F080049C6003689C68EF
:1013D00049680C439C6080F83D20002180F83C1057
:1013E000084630BD022030BD10B5040003D094F88B
:1013F0003D0010B107E0012010BD002084F83C0042
:10140000204600F00DF8022084F83D00211D2068E0
:1014100000F04CFE012084F83D00002010BD0000CB
:1014200008B5174A01681748914207D1816941F40C
:1014300000618161806900F400601EE0B1F1804FBD
:1014400014D0114A914219D1C16941F00201C16120
:10145000C069002200F00200009011461D20FFF735
:101460008DFCBDE808401D20FFF77CBCC16941F040
:101470000101C161C06900F00100009008BD0000D9
:10148000002C01400010024000040040022180F8BE
:101490003D1001680A6842F001020A60012180F8EB
:1014A0003D10002070470168CA6842F00102CA601E
:1014B0000068016841F0010101600020704770B5CB
:1014C000044690F83C00012817D0012584F83C50D0
:1014D000022084F83D002068826822F0770222F41E
:1014E0007F4282600868502837D00DDC202859D010
:1014F00005DC88B3102841D151E0022070BD3028AE
:1015000053D040283AD13FE060282ED070280BD02D
:10151000B0F5805F03D0B0F5005F2FD110E02068F8
:10152000816821F0070115E0CB68D1E9012120682D
:1015300000F0FDFD2168886840F0770088601DE0BC
:10154000CB68D1E90121206800F0F1FD20688168B5
:1015500041F48041816011E01EE0CA68496820685A
:1015600000F09AFE5021206806E0CA6849682068A9
:1015700000F0A3FE6021206800F0E3FD84F83D50F8
:10158000002084F83C0070BDCA684968206800F0FB
:1015900083FE40212068EFE700212068ECE710215E
:1015A0002068E9E720212068E6E730212068E3E7AA
:1015B000704770B50446006801694FF00005C943E3
:1015C000890715D4C168C943890711D4E91E01618F
:1015D00001202077206880698007204602D0FFF72D
:1015E000E7FF04E000F0ACF8204600F02EF9257784
:1015F00020680169C943490717D4C168C94349072D
:1016000013D46FF004010161022020772068806903
:1016100010F4407F204602D0FFF7CAFF04E000F03C
:101620008FF8204600F011F9257720680169C94339
:10163000090716D4C168C943090712D46FF008011D
:101640000161042020772068C0698007204602D00D
:10165000FFF7AEFF04E000F073F8204600F0F5F865
:10166000257720680169C943C90617D4C168C943F1
:10167000C90613D46FF0100101610820207720689B
:10168000C06910F4407F204602D0FFF791FF04E0CC
:1016900000F056F8204600F0D8F825772068016958
:1016A000C943C90708D1C168C943C90704D1891E04
:1016B0000161204600F0E2F820680169C94309068B
:1016C00009D4C168C943090605D46FF080010161DE
:1016D0002046FFF732FE20680169C943490609D454
:1016E000C168C943490605D46FF040010161204635
:1016F00000F038F920680169C94389060BD4C16834
:10170000C943890607D46FF0200101612046BDE876
:101710007040FFF713BE70BD1FB5006806498842D0
:1017200008D180150090022001900390694603487B
:10173000FFF7F2F81FBD0000002C01400008014037
:10174000704770B5044690F83C000D4601280DD056
:10175000012684F83C60022084F83D0042B1042A4E
:1017600018D0082A2AD00C2A4DD139E0022070BDA9
:10177000206800F0EFFC2068816941F00801816178
:101780002068816921F004018161206881692A69EA
:10179000114311E0206800F005FD2068816941F4E3
:1017A000006181612068816921F480618161206824
:1017B00081692A6941EA0221816124E0206800F000
:1017C0001DFD2068C16941F00801C1612068C1693F
:1017D00021F00401C1612068C1692A69114311E047
:1017E000206800F037FD2068C16941F40061C161E3
:1017F0002068C16921F48061C1612068C1692A69DA
:1018000041EA0221C16184F83D60002084F83C0077
:1018100070BD10B5040003D094F83D0010B107E08E
:10182000012010BD002084F83C00204600F00CF898
:10183000022084F83D00211D206800F037FC0120C3
:1018400084F83D00002010BD7047704710B5044675
:101850000068012200F060FC07492068884203D13B
:10186000416C41F4004141642068016841F001018C
:101870000160002010BD0000002C0140F0B50546BD
:1018800000682E4989B0884247D12D4C00262D4F43
:10189000A06A401CA062216B884210DDA662606BCA
:1018A0004FF400412063002807DA00223846FFF792
:1018B00011F9206B404220630BE0012206E04FF457
:1018C00000510128F9D0022803D100223846FFF741
:1018D00001F9E06A401CE062E16B884210DDE662DB
:1018E000A06BE063002808DA002204213846FFF7E5
:1018F000F1F8E06B4042E0630FE00122042109E0CF
:101900004FF40061012802D0022802D005E0012234
:1019100000E000223846FFF7DDF82868B0F1804F7C
:101920000AD109A1684600F05FFE4FF6FF731E2240
:1019300069460B4800F0E2F909B0F0BD0004004030
:1019400010000020000C014054696D657220326E59
:10195000642069732072756E6E696E67200A0000DC
:10196000E40100207047704770B5026804461068B3
:10197000D168536910F00F0F50D003F0010501F446
:10198000907635435DD0C20705D0CA0503D5E26B1A
:1019900042F00102E263420705D5DA0703D0E26BA9
:1019A00042F00202E263820705D5DA0703D0E26B58
:1019B00042F00402E263020705D5DA0703D0E26BC6
:1019C00042F00802E263E26B002A33D0800604D5BD
:1019D000880602D5204600F098FC20684069E16B3B
:1019E000C0F38010090700D428B3204600F07FFC24
:1019F0002068416949061AD5416921F040014161D9
:101A0000606BA0B11B494163606BFEF739FF002892
:101A100010D0606B416BBDE870400847830610D55D
:101A20008B060ED52046BDE8704000F06EBC204607
:101A3000FFF799FF70BD2046FFF795FF0020E06398
:101A400070BD030606D50B0604D52046BDE87040E0
:101A500000F05EBD4006F3D54806F1D5D1682046BA
:101A600021F04001D160202184F8391000F0A3F961
:101A700070BD0000DF22000870B5040004D094F8A7
:101A80003900002510B106E0012070BD84F83850FF
:101A9000204600F023F8242084F839002068C1682B
:101AA00021F40051C160204600F07AFC20680169F1
:101AB00021F4904101612068416921F02A014161CE
:101AC0002068C16841F40051C160E563202084F8BA
:101AD000390084F83A00002070BD000070B503683A
:101AE0002848274E002402210322051586B0B34260
:101AF00019D1836943F4804383618069224E00F4E5
:101B0000804004900802CDE9000103926946304606
:101B1000FEF702FFCDE90054694630460294FEF715
:101B2000FBFE06B070BD194EB342FAD1C36943F44F
:101B30008023C361C069CDE9005100F48020CDE964
:101B40000320134D69462846FEF7E6FEE814CDE96A
:101B50000004694628460294FEF7DEFE0D484168FF
:101B600021F0300141F0E06141F0100141600022BC
:101B700011462720FFF702F92720FFF7F3F8D0E7F7
:101B800000380140001002400008014000480040B9
:101B9000001001400000014090F83A30202B22D183
:101BA000F9B1F2B190F83830012B1CD081628285F6
:101BB000C2850021C163222280F83A2080F83810C3
:101BC0000168CA6842F48072CA6001684A6942F0DA
:101BD00001024A610068C16841F02001C160002033
:101BE0007047012070470220704700002DE9F04146
:101BF0000068324988425ED1314C00252046227867
:101C0000304B1746303AA261416A006A4FF6FF76C0
:101C1000432A25D00D2F32D043F82020401C2062CB
:101C200029A103F5E87000F0DFFC2B493346282298
:101C3000A1F1400000F062F828A12748626800F096
:101C4000D3FC254933462822A1F1400000F056F884
:101C5000BDE8F0412048012219494038FFF79CBFF8
:101C6000002206E053F8227001EB810107EB4101ED
:101C7000521C8242F6DB656225626160DCE7002768
:101C80000A4606E053F8271002EB820201EB4202FB
:101C90007F1C8742F6DB626215A10F48E26100F00B
:101CA000A3FC0D4933462822A1F1400000F026F89C
:101CB00025626562C0E7BDE8F08100000048004091
:101CC0001000002054000020726563656976653D50
:101CD0002564200A0000000024020020466F72776D
:101CE0006172645F73706565643D2564200A00005D
:101CF0007265633D2564200A000000002DE9F84369
:101D0000044690F839001F4616460D46202850D14B
:101D1000A5B19EB194F8380001284AD0012084F87A
:101D200038004FF00008C4F83C80212084F83900C6
:101D3000FEF7D6FEA6848146E68426E00120BDE8B3
:101D4000F883E08C401EE084A0684B46B0F5805FCD
:101D50004FF000024FF080012046009703D000F0C2
:101D600008FCE8B90DE000F004FCC8B92888216837
:101D7000C0F308004860206908B16D1C05E0AD1C87
:101D800003E0216815F8010B4860E08C0028D8D1E9
:101D90004B46002240212046009700F0EAFB08B1A4
:101DA0000320CCE7202084F8390084F83880002014
:101DB000C5E70220C3E77047FEE7000030B51A48C8
:101DC00085B0816941F020018161816901F02001C4
:101DD0000491816941F008018161816901F0080184
:101DE0000491816941F004018161816901F004017C
:101DF0000491816941F01001816180690B4D00F00F
:101E000010004AF604040490002221462846FEF7FA
:101E100061FE0120CDE9004002200390694628467A
:101E2000FEF77AFD05B030BD00100240000C014005
:101E30000B4810B5094901600A49416000214FF47F
:101E400080428160C0E9031241618161C161016228
:101E5000FEF74CFE002800D0FEE710BD0054004005
:101E600090000020A086010010B5274894B02549B5
:101E700001604FF47A710024C0E9011440F29F51CF
:101E8000C0E9031444618461FFF7AEFA00B1FEE7D4
:101E90004FF480500E900EA91B48FFF710FB00B1C5
:101EA000FEE71948FFF7B5FC00B1FEE7129412A94E
:101EB00015481394FFF770FA00B1FEE76020009018
:101EC0001C20CDE901040394049405940022694682
:101ED0000D480694FFF735FC00B1FEE7079408941F
:101EE00009944FF400500A94CDE90B4007A9064825
:101EF0000D94FFF724FA00B1FEE70348FFF70CFC4E
:101F000014B010BD002C0140E400002010B51448AE
:101F100086B04FF08041016040F265410024C0E985
:101F200001144FF47A41C0E9031480218161FFF765
:101F30005BFA00B1FEE74FF4805000906946084814
:101F4000FFF7BDFA00B1FEE7049404A90448059424
:101F5000FFF722FA002800D0FEE706B010BD00000F
:101F60002401002010B5134886B0114901604821B2
:101F70000024C0E901141421C0E903148021816107
:101F8000FFF732FA00B1FEE74FF480500090694647
:101F90000848FFF794FA00B1FEE7049404A9054845
:101FA0000594FFF7F9F9002800D0FEE706B010BD50
:101FB0000004004064010020FEE770470907090E95
:101FC000002806DA00F00F0000F1E02080F8141D70
:101FD000704700F1E02080F80014704770477047A8
:101FE00010B5FEF745FEBDE81040FFF7A2B930B5C9
:101FF0008FB001210804CDE90010002402940225CD
:102000000491CDE907504FF4E01009906846FEF7BF
:10201000EDFF00B1FEE70F20CDE90A054FF4806027
:10202000CDE90C4002210AA80E94FEF7D9FE00B1BA
:10203000FEE7FEF77FFF4FF47A71B0FBF1F0FFF798
:1020400064F90420FFF754F900221146501EFEF7F0
:1020500095FE0FB030BD00000D48016841F0010150
:10206000016041680B4A1140416001680A4A114011
:102070000160016821F480210160416821F4FE01C2
:1020800041604FF41F0181600449C003086070473C
:10209000001002400000FFF8FFFFF6FE08ED00E030
:1020A0000148FFF786BA000064010020F0B502681D
:1020B000164B174C174D4FF08047984205D0B84249
:1020C00003D0A04201D0A84203D122F070064A6892
:1020D0003243984205D0B84203D0A04201D0A84272
:1020E00003D122F44074CA68224322F080044A6972
:1020F000224302608A68C2620A688262984201D101
:102100000969016301214161F0BD0000002C01401B
:10211000000400400008004010B50123046A8B4011
:102120009C430462036A8A401343036210BD10B5E6
:10213000846842EA032224F47F440A4322438260F3
:1021400010BD826822F070020A4342F007018160EC
:102150007047000030B5026A22F001020262026A92
:102160004368846924F073050C682C4322F002054F
:102170008A682A430A4DA8420BD122F00805CA6892
:1021800023F440732A434D6922F004021D438B69F6
:102190002B434360846149684163026230BD0000A3
:1021A000002C014030B5026A22F010020262026A7D
:1021B000436884690D6824F4E64444EA05248D6884
:1021C00022F0200242EA05120B4DA8420ED1CD6842
:1021D00022F0800242EA05124D6923F4406343EA8B
:1021E00085038D6922F0400243EA850343608461E0
:1021F00049688163026230BD002C014030B5026A3B
:1022000022F480720262036A4268C46923F4007394
:1022100024F073050C682C438D6843EA05230C4DAC
:10222000A8420ED1CD6823F4006343EA05234D692B
:1022300022F4405242EA05128D6923F4806342EA97
:1022400005124260C4614968C163036230BD000089
:10225000002C014030B5026A22F480520262046A06
:102260004268C3690D6823F4E64343EA05238D6899
:1022700024F4005444EA0534064DA84204D14D69C3
:1022800022F4804242EA85124260C36149680164D7
:10229000046230BD002C014010B5036A046A24F0CA
:1022A00001040462846924F0F00444EA021423F077
:1022B0000A020A438461026210BD10B5036A23F06A
:1022C000100303628369046A23F4704343EA023211
:1022D00024F0A00343EA01118261016210BD10B530
:1022E000406A0021C185C184FFF73DFB10BD016834
:1022F000CA6822F49072CA6001684A6922F0010239
:102300004A61202180F83A10704710B590F83A10D1
:10231000222901D0022010BD8168B1F5805F11D063
:102320000169002901681FD0496801F07F03816AB3
:102330004A1C82620B70C18D491E0904090CC185BB
:1023400018D02BE00269816A002A0268526805D021
:10235000D2B20A80816A491C8162ECE7C2F30802AA
:102360000A80816A891CF7E74A68816A4B1C83628C
:102370000A70E0E70168CA6822F02002CA600168BA
:10238000CA6822F48072CA6001684A6922F00102B8
:102390004A61202180F83A10FFF728FC002010BD88
:1023A0002DE9F041044600680169E26821F44051DA
:1023B000114301612169A0680843616908432168EC
:1023C000CA6841F20C639A430243CA6020684169BB
:1023D000A26921F44071114341614C492068642590
:1023E000322688423CD1FEF7BBFD00EBC00101EB79
:1023F000001061688900B0FBF1F7FEF7B1FD00EB5A
:10240000C00101EB00106168B0468900B0FBF1F03B
:10241000B0FBF5F06FF01801484307EB800106EBC5
:102420000110B0FBF5F000F0F006FEF799FD00EBAF
:10243000C00101EB001061688900B0FBF1F0B0FB56
:10244000F5F006EB0016FEF78BFD00EBC00101EB8B
:10245000001061688900B0FBF1F7FEF781FD3BE0F9
:10246000FEF76EFD00EBC00101EB00106168890012
:10247000B0FBF1F7FEF764FD00EBC00101EB0010CB
:102480006168B0468900B0FBF1F0B0FBF5F06FF089
:102490001801484307EB800106EB0110B0FBF5F093
:1024A00000F0F006FEF74CFD00EBC00101EB001060
:1024B00061688900B0FBF1F0B0FBF5F006EB0016A7
:1024C000FEF73EFD00EBC00101EB001061688900E2
:1024D000B0FBF1F7FEF734FD00EBC00101EB00109B
:1024E00061688900B0FBF1F0B0FBF5F06FF0180106
:1024F000484307EB800108EB0110B0FBF5F02168C1
:1025000000F00F0030448860BDE8F08100380140E1
:1025100090F83910212901D0022070478168B1F567
:10252000805F016A0BD04A1C026202680978516020
:10253000C18C491E0904090CC1840ED017E009881A
:102540000268C1F30801516001690029016A02D0E3
:10255000491C0162ECE7891CFBE70168CA6822F0AC
:102560008002CA600068C16841F04001C16000207B
:1025700070472DE9F041984617460E460446069DE1
:102580001DE0681C1BD02DB1FEF7AAFAA0EB0800D5
:10259000A84214D92068C16821F4D071C1602068B4
:1025A000416921F001014161202084F8390084F85B
:1025B0003A00002084F838000320BDE8F08120684C
:1025C000006836EA000004D00020B842D9D00020CC
:1025D000F3E70120F9E700000148FFF7C5B9000063
:1025E000E4010020FEE700000FB4084B10B504A979
:1025F00002AA039800F0DEF8044602A9002000F0C9
:1026000070FC204610BC5DF814FB0000E32E0008AF
:1026100002E008C8121F08C1002AFAD170477047AB
:10262000002001E001C1121F002AFBD17047000009
:102630002DE9FF5F82B00021DDE90430020DDDF8F5
:1026400040B0034318D044F61050A2F2FF32424388
:102650001514119801281FD0A5EB0B00401C5FEA50
:10266000000A4FF000064E4FDFF83891B046504652
:1026700015D5CAF1000413E0119801244AA30128DA
:1026800001D16FEA0B010298119AC0E90031C0E94B
:10269000024206B0BDE8F09FCBF10000DFE7044640
:1026A0000021404A491842EB0450CDE9001012E0E5
:1026B000E00707D032463B4640464946FDF7BBFFA0
:1026C0008046894632463B4610461946FDF7B3FF21
:1026D00006460F466410002CEAD1DDE90401DDE96D
:1026E0000023BAF1000F06DAFDF7A5FF42464B467C
:1026F000FDF7A1FF05E0FEF710F842464B46FEF756
:102700000CF804460E460022284BFEF78DF803D83D
:102710004FF0FF30014607E00022254B20463146AE
:10272000FDF79AFDFEF768F8102409E0002C0ADB9B
:102730000A220023FDF799FE039B30321A55641ECE
:1027400050EA0102F2D1641C039AC4F1110314444B
:10275000119A012A03D0012208430DD10AE008434F
:1027600004D000204FF0110B119072E7A3EB0B0582
:102770006D1E0DE05B4504DD4FF0000205F1010523
:1027800004E003DA4FF00002A5F10105002AECD0C5
:1027900002981199C0E90231C0E9004579E70000CB
:1027A000000014400000F03F300000000000F04343
:1027B0000000E03F2DE9FF4F95B09B468946064655
:1027C00000250FE2252877D100242746F84A012169
:1027D000059400E0044316F8013F203B01FA03F0A2
:1027E0001042F7D130782A2811D06FF02F033078BB
:1027F000A0F13002092A16D8059A44F0020402EB2F
:10280000820203EB42021044761C0590EFE759F870
:10281000042B0592002A03DA504244F40054059038
:1028200044F00204761C30782E2816D116F8010FD9
:1028300044F004042A280DD06FF02F023078A0F164
:102840003003092B09D807EB870302EB4303C718B2
:10285000761CF3E759F8047B761C30786C280FD08F
:1028600006DC4C2817D068280DD06A2814D104E063
:10287000742810D07A280FD10DE044F400140AE037
:1028800044F4801401E044F440147278824202D18E
:1028900004F58014761C761C307866280BD013DC87
:1028A000582877D009DC002875D04528F6D046286E
:1028B000F4D047281AD19DE118E0632835D0642868
:1028C00079D0652812D195E1702873D008DC67288B
:1028D000F1D069286FD06E280DD06F2806D1B5E0F1
:1028E00073282CD0752875D0782874D05A4617993B
:1028F00090476D1C75E1C4F30250022809D00328EB
:102900000DD0D9F8001004280DD00D6009F104098C
:1029100067E1D9F80010EA17C1E90052F6E7D9F8E3
:1029200000100D80F2E70D70F0E719F8041B8DF828
:10293000001000208DF80100EA46012003E059F85C
:1029400004AB4FF0FF3061074FF0000102D40DE0FF
:1029500008F101018846B9420FDA8045F8DB1AF820
:1029600008100029F4D108E008F1010188468142ED
:10297000FADB1AF808100029F6D105985B46A0EB9F
:10298000080721463846179A00F094FA284400EBCD
:10299000080507E04DE029E10DE01AF8010B5A4661
:1029A00017999047B8F10108F7D25B46214638469F
:1029B000179A13E142E00A220092C4F302524FF048
:1029C000000A022A08D059F804CB032A4FEAEC7116
:1029D0000AD00DE029E02AE009F1070121F0070201
:1029E000F2E802C1914609E00FFA8CFC4FEAEC7163
:1029F000042A03D14FFA8CFC4FEAEC71002907DA64
:102A00000A460021DCF1000C61EB02012D2202E0FC
:102A1000220504D52B228DF80420012203E0E207D1
:102A200001D02022F7E7904659E00A2102E0102267
:102A30000DE010214FF0000A00910BE010224FF042
:102A4000000A44F004040827009203E008224FF033
:102A5000000A0092C4F30252022A05D059F804CBAE
:102A60000021032A08D009E009F1070121F007023B
:102A7000F2E802C1914605E01FFA8CFC042A01D15C
:102A80000CF0FF0C4FF00008220728D5702806D064
:102A9000009B83F0100353EA0A0305D00EE04022A6
:102AA0008DF80420012208E05CEA010206D0302201
:102AB0008DF804208DF8050002229046009B83F0DB
:102AC000080353EA0A030AD15CEA010201D1620752
:102AD00005D530228DF804204FF001087F1E5828BC
:102AE00004D034A003900EA802900DE036A0F9E7C0
:102AF00053466046009AFDF7B8FC84460398825C12
:102B00000298401E029002705CEA0100F0D1029827
:102B100006A9081A00F1200A600702D524F48034BF
:102B200000E00127574502DDA7EB0A0000E0002086
:102B300000EB0A01009005984144401A0590E0031B
:102B400006D45B462146179A059800F0B3F9054470
:102B5000002706E001A85A46C05D179990476D1CF2
:102B60007F1C4745F6DBE0030CD55B462146179AF0
:102B7000059800F09FF9054404E030205A46179963
:102B800090476D1C0099481E00900029F5DC08E074
:102B9000029802995A460078491C02911799904769
:102BA0006D1CBAF10001AAF1010AF1DC65E1000037
:102BB0000928010030313233343536373839616213
:102BC00063646566000000003031323334353637D7
:102BD00038394142434445460000000000F058F9AE
:102BE0000544761C307800287FF4ECAD19B02846F7
:102BF000BDE8F08F620700D4062709F1070222F032
:102C0000070CFCE80223E14603F000485FEA080CE9
:102C100002D00FF2702C0DE05FEA045C02D50FF2D7
:102C2000682C07E05FEAC47C02D00FF2602C01E060
:102C3000AFF2700C4FF0FF3823F00043CDF850C0D6
:102C400065280CD006DC452809D046281DD0472829
:102C50003DD13DE0662818D067287ED138E00021BC
:102C6000112F01DB112000E0781CCDE9000106A93D
:102C70000EA8FFF7DDFCDDE90F010E9A039100219C
:102C8000009207F1010A04914DE04FF000400097D7
:102C9000CDE9011006A90EA8FFF7CAFCDDE90F0275
:102CA00003920E9B11990022DDF80CA00093049270
:102CB00011B9791C00EB010AB7EB0A0004D4C0F18A
:102CC000FF3007F1010A0490AAEB0700019044E0ED
:102CD000012F00DA01270021112F01DD112000E072
:102CE0003846CDE9000106A90EA8FFF7A1FCDDE9F1
:102CF0000F010E9A0391002104910092BA46210718
:102D00000CD40399514500DA8A46BAF1010F05DD6A
:102D1000009AAAF10101515C302908D0B84202DAC8
:102D200010F1040F06DA0121CDE9011015E0AAF136
:102D30000101E9E7002805DC049901440491AAEBAC
:102D4000000102E0411C514500DD8A460499401A09
:102D5000401C01904FF000400290200704D40198DD
:102D6000504501DBCDF8048000208DF84F0002981B
:102D70000DF14F07B0F1004F25D02B200E90029897
:102D80004FF0020800280CDA404202902D200E90ED
:102D900007E00A210298FDF752FB3031029007F854
:102DA000011DB8F10001A8F10108F2DC0298002829
:102DB000EFD1791E0E980870307800F0200040F0B6
:102DC000450007F8020D12A8C01B00F1070814986F
:102DD000007800B1012000EB0A01019801EBE071DD
:102DE00005984144401A401E0590E00306D45B4616
:102DF0002146179A059800F05DF80544149800786C
:102E000018B15A46179990476D1CE00324D55B46CC
:102E10002146179A059800F04DF805441CE00498E7
:102E2000002807DBDDE90301884203DD0098405CF0
:102E3000179901E0179930205A469047049805F1F8
:102E40000105401C04900198401E019004D12E20E1
:102E50005A46179990476D1CBAF10001AAF1010A70
:102E6000DDDC05E017F8010B5A46179990476D1CF9
:102E7000B8F10001A8F10108F4DC5B462146179A7D
:102E80000598ABE62D0000002B000000200000009C
:102E90002DE9F041044600251E461746880404D457
:102EA00005E039462020B0476D1C641EF9D5284640
:102EB000BDE8F0812DE9F041044600251E4690460C
:102EC000C80301D5302700E02027880404D505E099
:102ED00041463846B0476D1C641EF9D52846BDE80A
:102EE000F0810A68531C0B6010707047FDF7C8FE34
:102EF000FFF77DF8FEF762FFFEF79AFFFFF732F863
:102F0000FFF704F86E486D49002501604FF4164143
:102F1000C0E901150C24C560C0E904548561C56190
:102F2000FEF7AAFD00B1FEE7FEF79EFF6448654983
:102F3000403801604FF4E131C0E90115C560C0E9D6
:102F400004548561C561FEF797FD00B1FEE70021DD
:102F50005D48FEF77BFC5A488038FEF7A4FA012250
:102F60005A495748FEF718FE57484030FEF78EFA88
:102F7000564C07274FF080464FF00B084FF07C5916
:102F8000E069E0B101281DD002281DD0032820D01F
:102F9000042824D0062826D005282ED0452838D04D
:102FA000342839D0A06931283DD032287BD033284D
:102FB000E6D149466069FDF7C5F86061E0E7656301
:102FC000A563DDE7606801E0606840426063A0637C
:102FD0001CE0606825644142C4E90D1017E0606898
:102FE00060634042F3E7D4E90121501A1144C4E977
:102FF0000D0107280ADA676308E0D4E901014218E5
:10300000401AC4E90D20072800DAA7632564756219
:10301000B6E72D491E2001E02B49782000F068F822
:10302000C4F81C80ACE74946E068FDF78BF8E06027
:10303000FDF7D6F9024622480B4625A14030FFF79E
:10304000D3FA1F494FF6FF7A5346282240311C48D5
:10305000FEF754FE2069FDF7C3F9024618480B46F7
:103060001DA14030FFF7C0FA1549534628224031D0
:103070001348FEF743FE6069FDF7B2F902461048B7
:103080000B4617A14030FFF7AFFA0D4953462822EF
:1030900040310B48FEF732FE01220C490848FEF78A
:1030A0007BFD6DE7FFE72069FDF79AF90E4A0F4BAC
:1030B000FDF7D2F8FDF7A7F9206161E7004800406D
:1030C000E401002000380140E4000020100000204E
:1030D00050203D202566090049203D202566090035
:1030E00044203D2025660900FCA9F1D24D62503FE5
:1030F00010B50C46FDF757F90649FDF77BF8064970
:10310000FDF720F80549FDF775F8FDF755F9216839
:10311000486310BD000040410000FA43BC74933D79
:103120000000000000000000010203040607080977
:1031300000000000010203045831000800000020D4
:103140005400000010260008AC3100085400002094
:10315000FC0500002026000801000000100000000F
:103160000000000000A24A0400000000140000005B
:1031700005000000000030410000000000000000D9
:10318000000000000000000000000000000000003F
:10319000000000000000000000000000000000002F
:0C31A00000000000000000000000000023
:04000005080000ED02
:00000001FF
