:020000040800F2
:1000000090060020010100085F1B0008E9180008A5
:100010005D1B00087501000889220008000000002F
:100020000000000000000000000000009D1C00080F
:10003000BD01000800000000E51B00089F1C00082F
:100040001B0100081B0100081B0100081B01000820
:100050001B0100081B0100081B0100081B01000810
:100060001B0100081B0100081B0100081B01000800
:100070001B0100081B0100081B0100081B010008F0
:100080001B0100081B0100081B0100081B010008E0
:100090001B0100081B0100081B0100081B010008D0
:1000A0001B0100081B0100081B0100081B010008C0
:1000B0001B0100085D1D00081B0100081B01000852
:1000C0001B0100081B0100081B0100081B010008A0
:1000D0001B0100081B0100081B0100087D2200080D
:1000E0001B0100081B0100081B010008DFF80CD0F1
:1000F00000F02EF800480047352400089006002044
:100100000648804706480047FEE7FEE7FEE7FEE7B1
:10011000FEE7FEE7FEE7FEE7FEE7FEE7151D000847
:10012000ED00000830B50B460146002020220124D6
:1001300009E021FA02F59D4205D303FA02F5491BB5
:1001400004FA02F52844151EA2F10102F1DC30BDCB
:10015000064C074D06E0E06840F0010394E8070014
:1001600098471034AC42F6D3FFF7C4FF00250008CF
:1001700020250008FEE700000E48016821F080718C
:100180000160016841F0807101600B48016821F055
:1001900001010160016841F001010160002141603D
:1001A00000BF00BF00BF406808B1002070470120B9
:1001B00070470000FCED00E0001000E07047000018
:1001C00010B590F821100024022903D00421816386
:1001D00001243DE001680A6822F00E020A6001680D
:1001E0000A6822F001020A601A4A0168914201D1AC
:1001F000012121E0174A1432914201D110211BE064
:10020000144A2832914201D1891515E0114A3C3235
:10021000914201D189140FE00E4A5032914202D12D
:100220004FF4803108E00B4A6432914202D14FF41E
:10023000801101E04FF08071064A083A51600121B7
:1002400080F82110002180F82010416B01B188470F
:10025000204610BD080002402DE9F84FDFF890A1BC
:1002600000220AF1040B144601274FF00F090BF18D
:10027000040E00BF0B6807FA04F52B40AB4274D1A3
:10028000DFF870C14E68A6EB0C0866452BD00DDC7C
:10029000032E34D005DC36B3012E19D0022E2FD117
:1002A0001BE0112E16D0122E2AD119E0B8F5881FA6
:1002B00019D006DCB8F5803F15D0B8F5801F1FD1E6
:1002C00011E0B8F5001F0ED0B8F5041F18D10AE0F0
:1002D000CA6815E0CA68121D12E0CA6808320FE049
:1002E000CA680C320CE08A682AB1012A4FF0080271
:1002F00003D0456104E0042202E0056100E0002231
:10030000FF2B01D8064601E000F104064FEA840500
:1003100001D9A5F12005D6F800C009FA05F82CEAA4
:10032000080C02FA05F54CEA050CC6F800C04D6849
:10033000ED0057D5304DAE6946F00106AE61AD69AE
:1003400024F0030605F0010500952C4D06EB050C85
:10035000DCF80850A6074FEA167809FA08F6B54304
:10036000274EB04202D1002610E03BE0254EB042BD
:1003700001D101260AE0244EB04201D1022605E057
:10038000224EB04201D1032600E0042606FA08F608
:100390002E43CCF808604D68DAF80060ED0355464E
:1003A00001D51E4300E09E432E604D68DBF80060DF
:1003B000AD035D4601D51E4300E09E432E604D68AF
:1003C000DEF80060ED02754601D51E4300E09E4355
:1003D0002E604D68AD020E4D2E6801D51E4300E023
:1003E0009E432E60641C102CFFF444AFBDE8F88FD0
:1003F0000004014000001110001002400000014004
:1004000000080140000C01400010014000140140B0
:100410000C0401400AB1016170470904FBE70000C8
:1004200001488068704700000000002070B504009B
:100430001BD094F83D00002520B984F83C5020469C
:1004400000F094F8242084F83D002068016821F031
:100450000101016000F014FA404A6168914201D83C
:100460003F4900E03F49884201D2012070BD3E492A
:100470002368B0FBF1F159606368934206D94FF4E9
:10048000967359434FF47A73B1FBF3F12368491C17
:1004900019626168914210D84900401EB0FBF1F228
:1004A000521CC2F30B02042A01D2042022E0B0FB4A
:1004B000F1F0401CC0F30B001CE0A368CBB301EBD0
:1004C000C10202EB0116421EB2FBF6F2521C42F4CC
:1004D0008042120536D06BB301EBC10202EB011171
:1004E000401EB0FBF1F0401CC0F30B0040F4804014
:1004F00040F400402168C861D4E90701084321683D
:100500000860D4E90310084321688860D4E9050134
:1005100008432168C8602068016841F0010101605A
:100520002564202084F83D00256384F83E50002097
:1005300070BD00E008E001EB4106421EB2FBF6F29E
:10054000521CC6E70120D5E701EB4101401EB0FB7C
:10055000F1F0401CC0F30B00CAE70000A0860100C8
:1005600080841E0000093D0040420F0000B5006875
:100570000C4985B0884212D1C02000901220019011
:100580000320039069460848FFF766FE0748C169E3
:1005900041F40011C161C06900F40010049005B07D
:1005A00000BD000000540040000C0140001002405B
:1005B0000248816802781144816070470000002081
:1005C000074810B5016841F010010160032000F0F8
:1005D00095F8002000F006F800F024F8002010BD87
:1005E0000020024070B50D4D04464FF47A71287812
:1005F000B1FBF0F00A490968B1FBF0F000F087FCAC
:1006000048B9102C07D200222146501E00F056F89F
:1006100000206C6070BD012070BD00000000002053
:100620000C0000201D4808B5816941F0010181617D
:10063000806900F001000090032000F05FF80022C4
:1006400011466FF00B0000F039F8002211466FF0F0
:100650000A0000F033F8002211466FF0090000F0A4
:100660002DF800221146501F00F028F800221146F4
:10067000101F00F023F800221146901E00F01EF813
:1006800000221146501E00F019F80548416821F07B
:10069000E06141F08061416008BD0000001002404F
:1006A0000000014000F01F0201219140400980003C
:1006B00000F1E020C0F8001170470000F0B40E4BCC
:1006C0001B680C46C3F30223C3F10705042D00D9B0
:1006D0000425191D072901D2002300E0DB1E012695
:1006E00006FA05F1491E214099409E40761E1640AB
:1006F0003143F0BC01F066BA0CED00E0064900F0B1
:10070000070208684FF6FF03184040EA0220034A38
:1007100010430860704700000CED00E00000FA058F
:100720002DE9F047DFF83C8105460E46D8F8000079
:1007300000F00700B0420CD2D8F8001021F00701F9
:100740003143C8F80010D8F8000000F00700B042AC
:1007500063D12878444C800705D56068A96820F0EB
:10076000F000084360602878C00745D06868012819
:1007700016D02168022816D0890700294DDA616851
:1007800021F0030101436160FFF74AFE69680746F3
:1007900041F2883001290FD00229814619D027E083
:1007A00021688903E9E78901E7E700BFFFF738FE21
:1007B000C11B494501D918E081466068C0F381003A
:1007C0000128F3D118E000BFFFF72AFEC11B4945FD
:1007D0000BD86068C0F381000228F5D10CE000BF9F
:1007E000FFF71EFEC11B494502D90320BDE8F08773
:1007F000606810F00C0FF3D1D8F80010404601F0FB
:100800000701B1420BD9016821F0070131430160B2
:10081000006800F00700B04201D00120E6E7287828
:10082000400705D56068E96820F4E060084360602F
:100830002878000706D56068296920F4605040EAEE
:10084000C100606000F03CF86168084AC1F3031120
:10085000515CC840064908600020FFF7C3FE002035
:10086000C4E700000020024000100240E824000815
:100870000C00002001480068704700000C000020B8
:100880000448054900684968044AC1F30221515CE3
:10089000C84070470C00002000100240F8240008F7
:1008A0000448054900684968044AC1F3C221515C03
:1008B000C84070470C00002000100240F8240008D7
:1008C00012A185B00FC98DE80F0014A0144A00686A
:1008D00004905168134801F00C03042B10D0082B2E
:1008E0000ED1C1F38343C9031DF803000AD5516833
:1008F00004AAC1F34041515C0A4A5043B0FBF1F0F5
:1009000005B0704708494843FAE7000002030405B0
:10091000060708090A0B0C0D0E0F1010010200004B
:100920000010024000127A0000093D002DE9F84F46
:1009300004460078B94DC00748D06868C0F381000C
:10094000012807D06868C0F38100022809D16868CF
:10095000C00306D52868800338D5606800286FD0AA
:1009600034E06068B0F5803F0BD010B1B0F5A02F37
:1009700011D0286820F480302860286820F4802076
:1009800002E0286840F480302860606888B1FFF792
:1009900047FD064609E0286840F480202860F0E71B
:1009A000FFF73EFD801B642875D828688003F7D5C3
:1009B0000CE0FFF735FD064605E000BFFFF730FD10
:1009C000801B6428F0D828688003F7D42078944EE0
:1009D00080074FF001094FF000083BD5686810F020
:1009E0000C0F07D06868C0F38100022809D168683D
:1009F000C00306D42868800714D5206901281FD1B8
:100A000010E02069B0B1C6F80090FFF709FD074675
:100A100005E000BFFFF704FDC01B0228C4D828680A
:100A20008007F7D52868616920F0F80040EAC10026
:100A300028600FE0C6F80080FFF7F2FC074606E0EA
:100A4000E9E000BFFFF7ECFCC01B022823D82868B0
:100A50008007F7D4207800072CD57248A169D9B156
:100A6000C0F80090FFF7DCFC074604E0FFF7D8FC75
:100A7000C01B02280FD8686A8007F7D56A484FF470
:100A8000FA510068B0FBF1F0009000BF0098411EE1
:100A90000091FAD20EE080E0C0F80080FFF7C0FCC1
:100AA000074604E0FFF7BCFCC01B022875D8686A43
:100AB0008007F7D42078400760D5E8690027C00098
:100AC00008D4E86940F08050E861E869012700F047
:100AD0008050009055480168C90513D401688346C9
:100AE00041F480710160FFF79BFC824606E000BF85
:100AF000FFF796FCA0EB0A0064284ED8DBF8000054
:100B0000C005F5D5E06801280AD008B1052813D042
:100B1000286A20F001002862286A20F0040002E020
:100B2000286A40F001002862E06841F2883B98B1F1
:100B3000FFF776FC82460BE0286A40F0040028624A
:100B4000EEE700BFFFF76CFCA0EB0A0159455AD84D
:100B5000286A8007F6D50CE0FFF762FC824605E0C4
:100B6000FFF75EFCA0EB0A0159454CD8286A8007C4
:100B7000F6D41FB1E86920F08050E861E06988B3DD
:100B80006968C1F38101022945D00228C6F8608056
:100B900004D0FFF745FC044638E034E0FFF740FCA2
:100BA000074604E0FFF73CFCC01B02282BD828684E
:100BB0008001F7D4206AB0F5803F05D16868A1684C
:100BC00020F4003008436860D4E9080108436968EC
:100BD00021F4741108436860C6F86090FFF720FCA8
:100BE000044606E015E000BFFFF71AFC001B0228D0
:100BF00009D828688001F7D50BE000BFFFF710FC8B
:100C0000001B022802D90320BDE8F88F2868800164
:100C1000F4D40020F8E70120F6E7000000100240BD
:100C200000004242800442420C000020007000405C
:100C300070B5040005D00025A56294F8510010B1EC
:100C400004E0012070BD204600F034F8022084F852
:100C500051002068016821F040010160D4E90101E0
:100C60000843D4E903121143084361690843218B07
:100C700001F400710843E1690843216A0843A16A4D
:100C8000084321680860A069042101EA1040616AF4
:100C90000843216848602168E06A08612068C169EA
:100CA00021F40061C1616565012084F851000020D4
:100CB00070BD000010B50068144986B0884223D189
:100CC0001348816941F4805181618069114C00F4BD
:100CD000805004902820009002200190032003906F
:100CE00069462046FFF7B8FA00211020CDE900013F
:100CF000029169462046FFF7AFFA0748416841F084
:100D0000E06141F00101416006B010BD00300140DA
:100D100000100240000C0140000001402DE9F84F96
:100D2000044690F8500000260A9F9A4693460D46C6
:100D30004FF0010801280ED0012084F85000FFF781
:100D40006FFB814694F85100616801280CD0B1F521
:100D5000827F07D102E00220BDE8F88FA16809B9BF
:100D6000042801D00226BDE055B1BBF1000F07D029
:100D7000BAF1000F04D094F85100012802D004E029
:100D80000126AFE0052084F8510000206065C4F81A
:100D900038B0A4F83EA0A4F83CA02563A4F836A07F
:100DA000A4F834A02064606420680168490603D474
:100DB000016841F040010160E068B0F5006F6068D3
:100DC00004D0E8B3E08E01283BD06AE010B1E08E99
:100DD00001282ED1216835F8020BC860E08E401E34
:100DE000E08626E0B8F1000F0DD0E08E58B1206803
:100DF0008168890707D535F8021BC160E08E401E67
:100E0000E0864FF00008E08F58B120688168C9077C
:100E100007D0C0682BF8020BE08F401EE0874FF030
:100E20000108781C05D0FFF7FBFAA0EB0900B842D7
:100E300046D2E08E0028D5D1E08F0028D2D136E00E
:100E4000FFE7216815F8010B0873E08E401EE0866D
:100E500027E000BFB8F1000F0DD0E08E58B1206838
:100E60008168890707D515F8011B0173E08E401EC4
:100E7000E0864FF00008E08F58B120688168C9070C
:100E800007D0C0680BF8010BE08F401EE0874FF0E1
:100E90000108781C05D0FFF7C3FAA0EB0900B8429F
:100EA0000ED2E08E0028D5D1E08F0028D2D13B466B
:100EB000012202212046CDF8009000F0A4FE08B1E6
:100EC00003260FE04A463946204600F08CFE18B152
:100ED00001262020606505E0A06818B92068C16877
:100EE00080680090012084F85100002084F85000B0
:100EF000304631E74FF0E0210428086903D020F0A4
:100F000004000861704740F00400FAE7704710B52C
:100F1000401EB0F1807F01D3012010BD4FF0E024CE
:100F200060610F21601700F04DFE0020A0610720D6
:100F30002061002010BD10B5FFF7E8FF10BD70471D
:100F4000704710B590F83C20012A25D0012280F886
:100F50003C20CA688C6822F4407222434C6822F418
:100F6000806222430C6822F4006222430C6922F45E
:100F7000805222434C6922F4005222438C6922F4AD
:100F80008042224322F4004102680023214351643D
:100F900080F83C30002010BD022010BD30B590F824
:100FA0003C20012A20D0012280F83C20022380F836
:100FB0003D3003685C6824F070045C6003685C6822
:100FC0000D682C435C6003689C6824F080049C607E
:100FD00003689C6849680C439C6080F83D200021B0
:100FE00080F83C10084630BD022030BD10B504002A
:100FF00003D094F83D0010B107E0012010BD00209F
:1010000084F83C00204600F00DF8022084F83D00F2
:10101000211D206800F0A8FE012084F83D0000207A
:1010200010BD000008B5174A01681748914207D162
:10103000816941F400618161806900F400601EE013
:10104000B1F1804F14D0114A914219D1C16941F0D8
:101050000201C161C069002200F002000090114647
:101060001D20FFF72BFBBDE808401D20FFF71ABB32
:10107000C16941F00101C161C06900F00100009047
:1010800008BD0000002C0140001002400004004098
:1010900070B5044690F83C00012817D0012584F86B
:1010A0003C50022084F83D002068826822F07702DC
:1010B00022F47F4282600868502837D00DDC202857
:1010C00059D005DC88B3102841D151E0022070BD11
:1010D000302853D040283AD13FE060282ED07028E5
:1010E0000BD0B0F5805F03D0B0F5005F2FD110E0DA
:1010F0002068816821F0070115E0CB68D1E9012162
:10110000206800F067FE2168886840F077008860FA
:101110001DE0CB68D1E90121206800F05BFE20686A
:10112000816841F48041816011E01EE0CA6849682D
:10113000206800F003FF5021206806E0CA68496873
:10114000206800F00CFF6021206800F04DFE84F85C
:101150003D50002084F83C0070BDCA684968206892
:1011600000F0ECFE40212068EFE700212068ECE76A
:1011700010212068E9E720212068E6E73021206877
:10118000E3E7704770B50446006801694FF0000559
:10119000C943890715D4C168C943890711D4E91E19
:1011A000016101202077206880698007204602D0F5
:1011B000FFF7E7FF04E000F0ADF8204600F02FF95C
:1011C000257720680169C943490717D4C168C94315
:1011D000490713D46FF004010161022020772068D1
:1011E000806910F4407F204602D0FFF7CAFF04E078
:1011F00000F090F8204600F012F925772068016988
:10120000C943090716D4C168C943090712D46FF04E
:1012100008010161042020772068C069800720460A
:1012200002D0FFF7AEFF04E000F074F8204600F0B3
:10123000F6F8257720680169C943C90617D4C16843
:10124000C943C90613D46FF010010161082020774B
:101250002068C06910F4407F204602D0FFF791FF5C
:1012600004E000F057F8204600F0D9F82577206810
:101270000169C943C90708D1C168C943C90704D175
:10128000891E0161204600F0CBF820680169C9433E
:10129000090609D4C168C943090605D46FF0800165
:1012A00001612046FFF74BFE20680169C9434906EA
:1012B00009D4C168C943490605D46FF040010161F2
:1012C000204600F021F920680169C94389060BD442
:1012D000C168C943890607D46FF020010161204627
:1012E000BDE87040FFF72CBE70BD00001FB5006860
:1012F0000649884208D18015009002200190039091
:1013000069460348FEF7A8FF1FBD0000002C0140FE
:1013100000080140704770B5044690F83C000D4647
:1013200001280DD0012684F83C60022084F83D009D
:1013300042B1042A18D0082A2AD00C2A4DD139E00B
:10134000022070BD206800F057FD2068816941F0DF
:10135000080181612068816921F0040181612068B0
:1013600081692A69114311E0206800F06DFD206851
:10137000816941F4006181612068816921F48061A3
:101380008161206881692A6941EA0221816124E042
:10139000206800F085FD2068C16941F00801C16145
:1013A0002068C16921F00401C1612068C1692A690E
:1013B000114311E0206800F09FFD2068C16941F4ED
:1013C0000061C1612068C16921F48061C161206848
:1013D000C1692A6941EA0221C16184F83D600020A7
:1013E00084F83C0070BD10B5040003D094F83D00B3
:1013F00010B107E0012010BD002084F83C00204619
:1014000000F00CF8022084F83D00211D206800F057
:10141000ABFC012084F83D00002010BD70477047F0
:10142000F0B5054600682E4989B0884247D12D4C59
:1014300000262D4FA069401CA061216A884210DD62
:10144000A661606A4FF400412062002807DA00229A
:101450003846FEF7DFFF206A404220620BE001229F
:1014600006E04FF400510128F9D0022803D10022F0
:101470003846FEF7CFFFE069401CE061E16A884230
:1014800010DDE661A06AE062002808DA002204218B
:101490003846FEF7BFFFE06A4042E0620FE00122FB
:1014A000042109E04FF40061012802D0022802D093
:1014B00005E0012200E000223846FEF7ABFF286875
:1014C000B0F1804F0AD109A1684600F0DFFE4FF667
:1014D000FF731E2269460B4800F0A8F909B0F0BD61
:1014E0000004004010000020000C014054696D65AC
:1014F0007220326E642069732072756E6E696E6739
:10150000200A0000280200207047704770B502686A
:1015100004461068D168536910F00F0F50D003F0E3
:10152000010501F4907635435DD0C20705D0CA05A8
:1015300003D5E26B42F00102E263420705D5DA0708
:1015400003D0E26B42F00202E263820705D5DA07BC
:1015500003D0E26B42F00402E263020705D5DA072A
:1015600003D0E26B42F00802E263E26B002A33D060
:10157000800604D5880602D5204600F018FD2068B4
:101580004069E16BC0F38010090700D428B32046FE
:1015900000F0FFFC2068416949061AD5416921F035
:1015A00040014161606BA0B11B494163606BFEF774
:1015B00007FE002810D0606B416BBDE87040084703
:1015C000830610D58B060ED52046BDE8704000F08E
:1015D000EEBC2046FFF799FF70BD2046FFF795FF50
:1015E0000020E06370BD030606D50B0604D5204637
:1015F000BDE8704000F0DEBD4006F3D54806F1D5E9
:10160000D168204621F04001D160202184F83910B2
:1016100000F069F970BD0000831F000870B5040078
:1016200004D094F83900002510B106E0012070BD07
:1016300084F83850204600F023F8242084F839003C
:101640002068C16821F40051C160204600F0FAFC16
:101650002068016921F4904101612068416921F00D
:101660002A0141612068C16841F40051C160E5630D
:10167000202084F8390084F83A00002070BD000072
:1016800070B503682848274E00240221032205155F
:1016900086B0B34219D1836943F480438361806982
:1016A000224E00F4804004900802CDE9000103922C
:1016B00069463046FEF7D0FDCDE900546946304614
:1016C0000294FEF7C9FD06B070BD194EB342FAD1BF
:1016D000C36943F48023C361C069CDE9005100F4BC
:1016E0008020CDE90320134D69462846FEF7B4FD5E
:1016F000E814CDE90004694628460294FEF7ACFDE3
:101700000D48416821F0300141F0E06141F01001E5
:101710004160002211462720FEF7D0FF2720FEF768
:10172000C1FFD0E70038014000100240000801402E
:1017300000480040001001400000014090F83A309D
:10174000202B22D1F9B1F2B190F83830012B1CD006
:1017500081628285C2850021C163222280F83A20FD
:1017600080F838100168CA6842F48072CA60016863
:101770004A6942F001024A610068C16841F02001F3
:10178000C1600020704701207047022070470000B0
:10179000F0B40068214988423DD121480025034624
:1017A0000278204CA2F13006866059691B69732AC1
:1017B0000FD02E2A1DD0752A2BD0642A29D044F8A8
:1017C00023605B1C0361F0BC012215491648FFF73A
:1017D000B5BF002207E000BF54F8226001EB810191
:1017E00006EB4101521C9A42F6DB456105614160FE
:1017F000E9E7002207E000BF54F8226001EB810115
:1018000006EB4101521C9A42F6DBC0E90315456123
:10181000D9E7C260D7E7F0BC70470000004800403D
:101820001000002040000020280200202DE9F8438D
:10183000044690F839001F4616460D46202850D120
:10184000A5B19EB194F8380001284AD0012084F84F
:1018500038004FF00008C4F83C80212084F839009B
:10186000FEF7DEFDA6848146E68426E00120BDE881
:10187000F883E08C401EE084A0684B46B0F5805FA2
:101880004FF000024FF080012046009703D000F097
:10189000C2FCE8B90DE000F0BEFCC8B92888216898
:1018A000C0F308004860206908B16D1C05E0AD1C5C
:1018B00003E0216815F8010B4860E08C0028D8D1BE
:1018C0004B46002240212046009700F0A4FC08B1BE
:1018D0000320CCE7202084F8390084F838800020E9
:1018E000C5E70220C3E77047FEE700002DE9F0419D
:1018F000254886B0816941F020018161816901F04C
:1019000020010491816941F008018161816901F040
:1019100008010491816941F004018161816901F04C
:1019200004010491816941F0100181618069174FC0
:1019300000F01000049000224AF604013846FEF739
:1019400069FD0122DFF84880160331464046FEF764
:1019500061FD012251023846FEF75CFD4AF6042083
:101960000124CDE900040225694603953846FEF7B7
:1019700073FCCDE90064694640460395FEF76CFCB4
:1019800006B0BDE8F081000000100240000C0140EC
:10199000001001400B4810B5094901600A49416037
:1019A00000214FF480428160C0E9031241618161EE
:1019B000C1610162FEF73AFD002800D0FEE710BDCC
:1019C000005400407C000020A08601000E4810B5A5
:1019D0000C4901604FF48271416000218160C16057
:1019E0004FF400720161C0E905123022C0E90721FD
:1019F000416281620A21C162FFF71AF9002800D012
:101A0000FEE710BD00300140D000002010B527488F
:101A100094B0254901604FF47A710024C0E90114A3
:101A200040F29F51C0E9031444618461FFF7DEFA7C
:101A300000B1FEE74FF480500E900EA91B48FFF74F
:101A400027FB00B1FEE71948FFF7CDFC00B1FEE728
:101A5000129412A915481394FFF7A0FA00B1FEE7FB
:101A6000602000901C20CDE90104039404940594A7
:101A7000002269460D480694FFF74DFC00B1FEE7D1
:101A80000794089409944FF400500A94CDE90B4050
:101A900007A906480D94FFF754FA00B1FEE7034882
:101AA000FFF724FC14B010BD002C014028010020D9
:101AB00010B5144886B04FF08041016040F2654196
:101AC0000024C0E901144FF47A41C0E903148021D5
:101AD0008161FFF78BFA00B1FEE74FF48050009070
:101AE00069460848FFF7D4FA00B1FEE7049404A958
:101AF00004480594FFF752FA002800D0FEE706B02C
:101B000010BD00006801002010B5134886B01149CF
:101B1000016048210024C0E901141421C0E9031424
:101B200080218161FFF762FA00B1FEE74FF4805037
:101B3000009069460848FFF7ABFA00B1FEE704944D
:101B400004A905480594FFF729FA002800D0FEE70C
:101B500006B010BD00040040A8010020FEE7704759
:101B600071B583B00020154E8DF8040002464FF485
:101B7000007529463046FEF74DFC4FF47A74012378
:101B800001AA03A90E480094FFF7C8F89DF80C00BD
:101B9000072809D0FF208DF80800012301AA02A917
:101BA00007480094FFF7BAF8012229463046FEF7AD
:101BB00031FC9DF8040004B070BD0000000C014031
:101BC000D00000200907090E002806DA00F00F00F7
:101BD00000F1E02080F8141D704700F1E02080F84B
:101BE00000147047704738B50B4600920446002237
:101BF000802100F008F8002804D0606D40F020003B
:101C00006065032038BD2DE9F0411D4617460E469C
:101C10000446DDF8188035E0681C33D02DB1FEF79E
:101C2000FFFBA0EB0800A8422CD32068416821F0FC
:101C3000E00141606068B0F5827F0BD1A068B0F52B
:101C4000004F02D0B0F5806F04D12068016821F008
:101C500040010160A06AB0F5005F0AD12068016808
:101C60004DF6FF72114001602068016841F4005197
:101C70000160012084F85100002084F85000032006
:101C8000BDE8F0812068806836EA000004D00020BA
:101C9000B842C1D10020F3E70120F9E7704710B541
:101CA000FEF786FCBDE81040FFF745B930B58FB0B0
:101CB00001210804CDE900100024029402250491BA
:101CC000CDE907504FF4E01009906846FEF72EFE6C
:101CD00000B1FEE70F20CDE90A054FF48060CDE9A1
:101CE0000C4002210AA80E94FEF71AFD00B1FEE78F
:101CF000FEF7C0FD4FF47A71B0FBF1F0FFF707F982
:101D00000420FFF7F7F800221146501EFEF7D6FC1C
:101D10000FB030BD0D48016841F00101016041681C
:101D20000B4A1140416001680A4A11400160016894
:101D300021F480210160416821F4FE0141604FF4EB
:101D40001F0181600449C003086070470010024011
:101D50000000FFF8FFFFF6FE08ED00E00148FFF786
:101D600011BA0000A8010020F0B50268164B174C0C
:101D7000174D4FF08047984205D0B84203D0A0429B
:101D800001D0A84203D122F070064A68324398423B
:101D900005D0B84203D0A04201D0A84203D122F41A
:101DA0004074CA68224322F080044A6922430260D8
:101DB0008A68C2620A688262984201D10969016335
:101DC00001214161F0BD0000002C014000040040F1
:101DD0000008004010B5846842EA032224F47F44DE
:101DE0000A432243826010BD826822F070020A43D7
:101DF00042F007018160704730B5026A22F00102AB
:101E00000262026A4368846924F073050C682C43FB
:101E100022F002058A682A430A4DA8420BD122F01B
:101E20000805CA6823F440732A434D6922F004026E
:101E30001D438B692B43436084614968416302629F
:101E400030BD0000002C014030B5026A22F01002C3
:101E50000262026A436884690D6824F4E64444EA35
:101E600005248D6822F0200242EA05120B4DA8429B
:101E70000ED1CD6822F0800242EA05124D6923F4AA
:101E8000406343EA85038D6922F0400243EA8503FB
:101E90004360846149688163026230BD002C014067
:101EA00030B5026A22F480720262036A4268C46931
:101EB00023F4007324F073050C682C438D6843EA07
:101EC00005230C4DA8420ED1CD6823F4006343EAEC
:101ED00005234D6922F4405242EA05128D6923F42C
:101EE000806342EA05124260C4614968C1630362CB
:101EF00030BD0000002C014030B5026A22F480524F
:101F00000262046A4268C3690D6823F4E64343EA47
:101F100005238D6824F4005444EA0534064DA84294
:101F200004D14D6922F4804242EA85124260C361C5
:101F300049680164046230BD002C014010B5036A99
:101F4000046A24F001040462846924F0F00444EA81
:101F5000021423F00A020A438461026210BD10B524
:101F6000036A23F0100303628369046A23F4704355
:101F700043EA023224F0A00343EA011182610162C4
:101F800010BD10B5406A0021C185C184FFF7BDFABC
:101F900010BD0168CA6822F49072CA6001684A697B
:101FA00022F001024A61202180F83A10704710B5F2
:101FB00090F83A10222901D0022010BD8168B1F5B5
:101FC000805F11D00169002901681FD0496801F0C4
:101FD0007F03816A4A1C82620B70C18D491E09040D
:101FE000090CC18518D02BE00269816A002A0268B9
:101FF000526805D0D2B20A80816A491C8162ECE73E
:10200000C2F308020A80816A891CF7E74A68816A7C
:102010004B1C83620A70E0E70168CA6822F0200264
:10202000CA600168CA6822F48072CA6001684A699D
:1020300022F001024A61202180F83A10FFF7A8FB44
:10204000002010BD2DE9F041044600680169E268F6
:1020500021F44051114301612169A068084361697D
:1020600008432168CA6841F20C639A430243CA607C
:1020700020684169A26921F44071114341614C49D2
:1020800020686425322688423CD1FEF709FC00EB2B
:10209000C00101EB001061688900B0FBF1F7FEF7A9
:1020A000FFFB00EBC00101EB00106168B046890046
:1020B000B0FBF1F0B0FBF5F06FF01801484307EB0F
:1020C000800106EB0110B0FBF5F000F0F006FEF722
:1020D000E7FB00EBC00101EB001061688900B0FB79
:1020E000F1F0B0FBF5F006EB0016FEF7D9FB00EBC4
:1020F000C00101EB001061688900B0FBF1F7FEF749
:10210000CFFB3BE0FEF7BCFB00EBC00101EB001096
:1021100061688900B0FBF1F7FEF7B2FB00EBC0018C
:1021200001EB00106168B0468900B0FBF1F0B0FB34
:10213000F5F06FF01801484307EB800106EB011042
:10214000B0FBF5F000F0F006FEF79AFB00EBC001E3
:1021500001EB001061688900B0FBF1F0B0FBF5F015
:1021600006EB0016FEF78CFB00EBC00101EB001044
:1021700061688900B0FBF1F7FEF782FB00EBC0015C
:1021800001EB001061688900B0FBF1F0B0FBF5F0E5
:102190006FF01801484307EB800108EB0110B0FB1A
:1021A000F5F0216800F00F0030448860BDE8F08150
:1021B0000038014090F83910212901D002207047E1
:1021C0008168B1F5805F016A0BD04A1C0262026827
:1021D00009785160C18C491E0904090CC1840ED0D4
:1021E00017E009880268C1F30801516001690029FC
:1021F000016A02D0491C0162ECE7891CFBE7016817
:10220000CA6822F08002CA600068C16841F04001DB
:10221000C160002070472DE9F041984617460E46F0
:102220000446069D1DE0681C1BD02DB1FEF7F8F892
:10223000A0EB0800A84214D92068C16821F4D0712D
:10224000C1602068416921F001014161202084F8CA
:10225000390084F83A00002084F838000320BDE8F3
:10226000F0812068006836EA000004D00020B842FF
:10227000D9D00020F3E70120F9E700000148FFF77B
:1022800045B9000028020020FEE700000FB4084B0B
:1022900010B504A902AA039800F01CF8044602A98C
:1022A000002000F0C1F8204610BC5DF814FB0000CF
:1022B0002924000802E008C8121F08C1002AFAD128
:1022C00070477047002001E001C1121F002AFBD1B6
:1022D000704700002DE9FF4F89B09B46044600255A
:1022E00006E025280BD05A460B999047641C6D1CBC
:1022F00020780028F5D10DB02846BDE8F08F0027E2
:10230000B8460122474900E0074314F8013F203B4B
:1023100002FA03F00842F7D120782E2819D114F8D8
:10232000010F47F004072A280ED06FF02F02207803
:10233000A0F1300109290CD808EB880102EB41011A
:1023400000EB0108641CF2E70A98641C50F8048B47
:102350000A9020780028CED0642808D0692806D0BA
:1023600075281ED05A460B9990476D1C58E00A9963
:102370004FF00A0901C90A91002802DA40422D21D2
:1023800002E0390504D52B218DF82010012103E04E
:10239000F90704D02021F7E78A4608AE0DE00021B6
:1023A000FAE70A994FF00A0901C90A91F7E7494685
:1023B000FDF7B8FE303106F8011D0028F7D1ADEB6E
:1023C000060000F12009780701D44FF00108C84544
:1023D00002DDA8EB090000E000208046002706E0AF
:1023E00008A85A46C05D0B9990476D1C7F1C574545
:1023F000F6DB04E030205A460B9990476D1CB8F18B
:102400000001A8F10108F5DC05E016F8010B5A46B9
:102410000B9990476D1CB9F10001A9F10109F4DC99
:10242000641C65E7092801000A68531C0B601070E2
:1024300070470000FEF7C4F8FFF738FCFFF756FAC4
:10244000FFF7A8FAFFF760FBFFF732FB20481F49B0
:10245000002401604FF41641C0E901140C25C4604A
:10246000C0E904458461C461FFF7D8F800B1FEE714
:10247000FFF7CCFA16481749403801604FF4E131B4
:10248000C0E90114C460C0E904458461C461FFF778
:10249000C5F800B1FEE7FFF799FAFDF76DFE0E4CA7
:1024A0004FF6FF750720FFF75BFB60700246084898
:1024B0000AA14030FFF7EAFE05492B4640312822A9
:1024C000A1F18000FFF7B2F9ECE7000000480040FE
:1024D000280200200038014010000020446174618F
:1024E000203D25640A0000000000000000000000FC
:1024F00001020304060708090000000001020304AA
:10250000202500080000002040000000B422000840
:10251000602500084000002050060000C42200088A
:1025200001000000100000000000000000A24A04AA
:102530000000000014000000000000000000000087
:10254000000000000000000000000000000000008B
:10255000000000000000000000000000000000007B
:04000005080000ED02
:00000001FF
